{
  "contractName": "crowdfunding",
  "abi": [
    {
      "inputs": [
        {
          "internalType": "uint256",
          "name": "",
          "type": "uint256"
        }
      ],
      "name": "CampaignsList",
      "outputs": [
        {
          "internalType": "string",
          "name": "name",
          "type": "string"
        },
        {
          "internalType": "string",
          "name": "description",
          "type": "string"
        },
        {
          "internalType": "uint256",
          "name": "currentfunds",
          "type": "uint256"
        },
        {
          "internalType": "address payable",
          "name": "recipient",
          "type": "address"
        },
        {
          "internalType": "uint256",
          "name": "investorsCount",
          "type": "uint256"
        },
        {
          "internalType": "uint256",
          "name": "approvalcount",
          "type": "uint256"
        },
        {
          "internalType": "string",
          "name": "status",
          "type": "string"
        },
        {
          "internalType": "uint256",
          "name": "milestones",
          "type": "uint256"
        },
        {
          "internalType": "uint256",
          "name": "fundsneeded",
          "type": "uint256"
        },
        {
          "internalType": "bool",
          "name": "fundscollected",
          "type": "bool"
        }
      ],
      "stateMutability": "view",
      "type": "function",
      "constant": true
    },
    {
      "inputs": [],
      "name": "getListLength",
      "outputs": [
        {
          "internalType": "uint256",
          "name": "",
          "type": "uint256"
        }
      ],
      "stateMutability": "view",
      "type": "function",
      "constant": true
    },
    {
      "inputs": [
        {
          "internalType": "string",
          "name": "n",
          "type": "string"
        },
        {
          "internalType": "string",
          "name": "dsc",
          "type": "string"
        },
        {
          "internalType": "uint256",
          "name": "fn",
          "type": "uint256"
        }
      ],
      "name": "createCampaign",
      "outputs": [],
      "stateMutability": "nonpayable",
      "type": "function"
    },
    {
      "inputs": [
        {
          "internalType": "uint256",
          "name": "indexofcampaign",
          "type": "uint256"
        }
      ],
      "name": "InvestInCampaign",
      "outputs": [],
      "stateMutability": "payable",
      "type": "function",
      "payable": true
    },
    {
      "inputs": [
        {
          "internalType": "uint256",
          "name": "indexofcampaign",
          "type": "uint256"
        }
      ],
      "name": "giveApproval",
      "outputs": [],
      "stateMutability": "nonpayable",
      "type": "function"
    },
    {
      "inputs": [
        {
          "internalType": "uint256",
          "name": "indexofcampaign",
          "type": "uint256"
        }
      ],
      "name": "retrieveMoney",
      "outputs": [],
      "stateMutability": "payable",
      "type": "function",
      "payable": true
    },
    {
      "inputs": [
        {
          "internalType": "uint256",
          "name": "indexofcampaign",
          "type": "uint256"
        }
      ],
      "name": "updateMilestones",
      "outputs": [],
      "stateMutability": "nonpayable",
      "type": "function"
    },
    {
      "inputs": [
        {
          "internalType": "uint256",
          "name": "indexofcampaign",
          "type": "uint256"
        }
      ],
      "name": "EndCampaign",
      "outputs": [],
      "stateMutability": "nonpayable",
      "type": "function"
    },
    {
      "inputs": [
        {
          "internalType": "uint256",
          "name": "id",
          "type": "uint256"
        }
      ],
      "name": "getCampaignName",
      "outputs": [
        {
          "internalType": "string",
          "name": "",
          "type": "string"
        }
      ],
      "stateMutability": "view",
      "type": "function",
      "constant": true
    },
    {
      "inputs": [
        {
          "internalType": "uint256",
          "name": "id",
          "type": "uint256"
        }
      ],
      "name": "getCampaignDesc",
      "outputs": [
        {
          "internalType": "string",
          "name": "",
          "type": "string"
        }
      ],
      "stateMutability": "view",
      "type": "function",
      "constant": true
    },
    {
      "inputs": [
        {
          "internalType": "uint256",
          "name": "id",
          "type": "uint256"
        }
      ],
      "name": "getCampaignMilestones",
      "outputs": [
        {
          "internalType": "uint256",
          "name": "",
          "type": "uint256"
        }
      ],
      "stateMutability": "view",
      "type": "function",
      "constant": true
    },
    {
      "inputs": [
        {
          "internalType": "uint256",
          "name": "id",
          "type": "uint256"
        }
      ],
      "name": "getCampaignTargetAmount",
      "outputs": [
        {
          "internalType": "uint256",
          "name": "",
          "type": "uint256"
        }
      ],
      "stateMutability": "view",
      "type": "function",
      "constant": true
    },
    {
      "inputs": [
        {
          "internalType": "uint256",
          "name": "id",
          "type": "uint256"
        }
      ],
      "name": "getCampaignCurrentFunds",
      "outputs": [
        {
          "internalType": "uint256",
          "name": "",
          "type": "uint256"
        }
      ],
      "stateMutability": "view",
      "type": "function",
      "constant": true
    },
    {
      "inputs": [
        {
          "internalType": "uint256",
          "name": "id",
          "type": "uint256"
        }
      ],
      "name": "getInvestorsNumber",
      "outputs": [
        {
          "internalType": "uint256",
          "name": "",
          "type": "uint256"
        }
      ],
      "stateMutability": "view",
      "type": "function",
      "constant": true
    },
    {
      "inputs": [
        {
          "internalType": "uint256",
          "name": "id",
          "type": "uint256"
        }
      ],
      "name": "getGrantOwner",
      "outputs": [
        {
          "internalType": "address",
          "name": "",
          "type": "address"
        }
      ],
      "stateMutability": "view",
      "type": "function",
      "constant": true
    },
    {
      "inputs": [
        {
          "internalType": "uint256",
          "name": "id",
          "type": "uint256"
        }
      ],
      "name": "getInvestors",
      "outputs": [
        {
          "internalType": "address[]",
          "name": "",
          "type": "address[]"
        }
      ],
      "stateMutability": "view",
      "type": "function",
      "constant": true
    },
    {
      "inputs": [
        {
          "internalType": "uint256",
          "name": "id",
          "type": "uint256"
        }
      ],
      "name": "getApprovalCount",
      "outputs": [
        {
          "internalType": "uint256",
          "name": "",
          "type": "uint256"
        }
      ],
      "stateMutability": "view",
      "type": "function",
      "constant": true
    },
    {
      "inputs": [
        {
          "internalType": "uint256",
          "name": "id",
          "type": "uint256"
        }
      ],
      "name": "getCampaignStatus",
      "outputs": [
        {
          "internalType": "string",
          "name": "",
          "type": "string"
        }
      ],
      "stateMutability": "view",
      "type": "function",
      "constant": true
    }
  ],
  "bytecode": "0x60806040526040518060400160405280600b81526020017f696e2070726f67726573730000000000000000000000000000000000000000008152506001908051906020019062000051929190620000b4565b506040518060400160405280600981526020017f636f6d706c657465640000000000000000000000000000000000000000000000815250600290805190602001906200009f929190620000b4565b50348015620000ad57600080fd5b50620001c8565b828054620000c29062000193565b90600052602060002090601f016020900481019282620000e6576000855562000132565b82601f106200010157805160ff191683800117855562000132565b8280016001018555821562000132579182015b828111156200013157825182559160200191906001019062000114565b5b50905062000141919062000145565b5090565b5b808211156200016057600081600090555060010162000146565b5090565b7f4e487b7100000000000000000000000000000000000000000000000000000000600052602260045260246000fd5b60006002820490506001821680620001ac57607f821691505b602082108103620001c257620001c162000164565b5b50919050565b611f5880620001d86000396000f3fe6080604052600436106101095760003560e01c806386fcc5d011610095578063b138821e11610064578063b138821e146103c6578063b65c531b146103ef578063ba7e7cab1461041a578063f91e4b2914610457578063ffa56a571461049457610109565b806386fcc5d0146102f1578063a0275aeb14610337578063a31a592014610360578063abe114b51461039d57610109565b80636c19e004116100dc5780636c19e004146101e15780636caf263d1461021e578063714d611a1461025b5780637338a44a1461027757806376a1e98d146102b457610109565b80631139de551461010e578063274ebb131461014b5780635a102275146101675780635da360c3146101a4575b600080fd5b34801561011a57600080fd5b506101356004803603810190610130919061187b565b6104bd565b6040516101429190611998565b60405180910390f35b6101656004803603810190610160919061187b565b610570565b005b34801561017357600080fd5b5061018e6004803603810190610189919061187b565b6107fc565b60405161019b9190611a53565b60405180910390f35b3480156101b057600080fd5b506101cb60048036038101906101c6919061187b565b6108b3565b6040516101d89190611a84565b60405180910390f35b3480156101ed57600080fd5b506102086004803603810190610203919061187b565b6108e1565b6040516102159190611a53565b60405180910390f35b34801561022a57600080fd5b506102456004803603810190610240919061187b565b610998565b6040516102529190611a84565b60405180910390f35b6102756004803603810190610270919061187b565b6109c6565b005b34801561028357600080fd5b5061029e6004803603810190610299919061187b565b610cd3565b6040516102ab9190611a53565b60405180910390f35b3480156102c057600080fd5b506102db60048036038101906102d6919061187b565b610d8a565b6040516102e89190611a84565b60405180910390f35b3480156102fd57600080fd5b506103186004803603810190610313919061187b565b610db8565b60405161032e9a99989796959493929190611adb565b60405180910390f35b34801561034357600080fd5b5061035e6004803603810190610359919061187b565b610fe1565b005b34801561036c57600080fd5b506103876004803603810190610382919061187b565b6110cc565b6040516103949190611b9b565b60405180910390f35b3480156103a957600080fd5b506103c460048036038101906103bf919061187b565b61111a565b005b3480156103d257600080fd5b506103ed60048036038101906103e8919061187b565b611205565b005b3480156103fb57600080fd5b50610404611338565b6040516104119190611a84565b60405180910390f35b34801561042657600080fd5b50610441600480360381019061043c919061187b565b611344565b60405161044e9190611a84565b60405180910390f35b34801561046357600080fd5b5061047e6004803603810190610479919061187b565b611372565b60405161048b9190611a84565b60405180910390f35b3480156104a057600080fd5b506104bb60048036038101906104b69190611c1b565b6113a0565b005b6060600082815481106104d3576104d2611cb0565b5b90600052602060002090600b020160080180548060200260200160405190810160405280929190818152602001828054801561056457602002820191906000526020600020905b8160009054906101000a900473ffffffffffffffffffffffffffffffffffffffff1673ffffffffffffffffffffffffffffffffffffffff168152602001906001019080831161051a575b50505050509050919050565b3373ffffffffffffffffffffffffffffffffffffffff166000828154811061059b5761059a611cb0565b5b90600052602060002090600b020160030160009054906101000a900473ffffffffffffffffffffffffffffffffffffffff1673ffffffffffffffffffffffffffffffffffffffff161480156106265750600115156000828154811061060357610602611cb0565b5b90600052602060002090600b0201600a0160009054906101000a900460ff161515145b80156106805750600160405161063c9190611dde565b60405180910390206000828154811061065857610657611cb0565b5b90600052602060002090600b02016006016040516106769190611dde565b6040518091039020145b156107f95760026000828154811061069b5761069a611cb0565b5b90600052602060002090600b0201600401546106b79190611e53565b600082815481106106cb576106ca611cb0565b5b90600052602060002090600b020160050154106107f85760008082815481106106f7576106f6611cb0565b5b90600052602060002090600b020160020154905060026000838154811061072157610720611cb0565b5b90600052602060002090600b020160070154148061076457506003600083815481106107505761074f611cb0565b5b90600052602060002090600b020160070154145b156107f6576000828154811061077d5761077c611cb0565b5b90600052602060002090600b020160030160009054906101000a900473ffffffffffffffffffffffffffffffffffffffff1673ffffffffffffffffffffffffffffffffffffffff166108fc829081150290604051600060405180830381858888f193505050501580156107f4573d6000803e3d6000fd5b505b505b5b50565b60606000828154811061081257610811611cb0565b5b90600052602060002090600b0201600001805461082e90611d0e565b80601f016020809104026020016040519081016040528092919081815260200182805461085a90611d0e565b80156108a75780601f1061087c576101008083540402835291602001916108a7565b820191906000526020600020905b81548152906001019060200180831161088a57829003601f168201915b50505050509050919050565b60008082815481106108c8576108c7611cb0565b5b90600052602060002090600b0201600901549050919050565b6060600082815481106108f7576108f6611cb0565b5b90600052602060002090600b0201600601805461091390611d0e565b80601f016020809104026020016040519081016040528092919081815260200182805461093f90611d0e565b801561098c5780601f106109615761010080835404028352916020019161098c565b820191906000526020600020905b81548152906001019060200180831161096f57829003601f168201915b50505050509050919050565b60008082815481106109ad576109ac611cb0565b5b90600052602060002090600b0201600201549050919050565b60001515600082815481106109de576109dd611cb0565b5b90600052602060002090600b0201600a0160009054906101000a900460ff161515148015610a5a57506001604051610a169190611dde565b604051809103902060008281548110610a3257610a31611cb0565b5b90600052602060002090600b0201600601604051610a509190611dde565b6040518091039020145b15610cd0573460008281548110610a7457610a73611cb0565b5b90600052602060002090600b02016002016000828254610a949190611e84565b9250508190555060008181548110610aaf57610aae611cb0565b5b90600052602060002090600b02016002015460008281548110610ad557610ad4611cb0565b5b90600052602060002090600b02016009015403610b2b57600160008281548110610b0257610b01611cb0565b5b90600052602060002090600b0201600a0160006101000a81548160ff0219169083151502179055505b600160008281548110610b4157610b40611cb0565b5b90600052602060002090600b02016008018054905003610be1573360008281548110610b7057610b6f611cb0565b5b90600052602060002090600b0201600801600081548110610b9457610b93611cb0565b5b9060005260206000200160006101000a81548173ffffffffffffffffffffffffffffffffffffffff021916908373ffffffffffffffffffffffffffffffffffffffff160217905550610c92565b60008181548110610bf557610bf4611cb0565b5b90600052602060002090600b0201600801805490505060008181548110610c1f57610c1e611cb0565b5b90600052602060002090600b0201600801339080600181540180825580915050600190039060005260206000200160009091909190916101000a81548173ffffffffffffffffffffffffffffffffffffffff021916908373ffffffffffffffffffffffffffffffffffffffff1602179055505b600160008281548110610ca857610ca7611cb0565b5b90600052602060002090600b02016004016000828254610cc89190611e84565b925050819055505b50565b606060008281548110610ce957610ce8611cb0565b5b90600052602060002090600b02016001018054610d0590611d0e565b80601f0160208091040260200160405190810160405280929190818152602001828054610d3190611d0e565b8015610d7e5780601f10610d5357610100808354040283529160200191610d7e565b820191906000526020600020905b815481529060010190602001808311610d6157829003601f168201915b50505050509050919050565b6000808281548110610d9f57610d9e611cb0565b5b90600052602060002090600b0201600401549050919050565b60008181548110610dc857600080fd5b90600052602060002090600b0201600091509050806000018054610deb90611d0e565b80601f0160208091040260200160405190810160405280929190818152602001828054610e1790611d0e565b8015610e645780601f10610e3957610100808354040283529160200191610e64565b820191906000526020600020905b815481529060010190602001808311610e4757829003601f168201915b505050505090806001018054610e7990611d0e565b80601f0160208091040260200160405190810160405280929190818152602001828054610ea590611d0e565b8015610ef25780601f10610ec757610100808354040283529160200191610ef2565b820191906000526020600020905b815481529060010190602001808311610ed557829003601f168201915b5050505050908060020154908060030160009054906101000a900473ffffffffffffffffffffffffffffffffffffffff1690806004015490806005015490806006018054610f3f90611d0e565b80601f0160208091040260200160405190810160405280929190818152602001828054610f6b90611d0e565b8015610fb85780601f10610f8d57610100808354040283529160200191610fb8565b820191906000526020600020905b815481529060010190602001808311610f9b57829003601f168201915b50505050509080600701549080600901549080600a0160009054906101000a900460ff1690508a565b3373ffffffffffffffffffffffffffffffffffffffff166000828154811061100c5761100b611cb0565b5b90600052602060002090600b020160030160009054906101000a900473ffffffffffffffffffffffffffffffffffffffff1673ffffffffffffffffffffffffffffffffffffffff16148015611086575060046000828154811061107257611071611cb0565b5b90600052602060002090600b020160070154105b156110c9576001600082815481106110a1576110a0611cb0565b5b90600052602060002090600b020160070160008282546110c19190611e84565b925050819055505b50565b60008082815481106110e1576110e0611cb0565b5b90600052602060002090600b020160030160009054906101000a900473ffffffffffffffffffffffffffffffffffffffff169050919050565b3373ffffffffffffffffffffffffffffffffffffffff166000828154811061114557611144611cb0565b5b90600052602060002090600b020160030160009054906101000a900473ffffffffffffffffffffffffffffffffffffffff1673ffffffffffffffffffffffffffffffffffffffff1603611202576040518060400160405280600981526020017f636f6d706c657465640000000000000000000000000000000000000000000000815250600082815481106111dc576111db611cb0565b5b90600052602060002090600b0201600601908051906020019061120092919061169c565b505b50565b6000805b6000838154811061121d5761121c611cb0565b5b90600052602060002090600b0201600801805490508110156112e9573373ffffffffffffffffffffffffffffffffffffffff166000848154811061126457611263611cb0565b5b90600052602060002090600b0201600801828154811061128757611286611cb0565b5b9060005260206000200160009054906101000a900473ffffffffffffffffffffffffffffffffffffffff1673ffffffffffffffffffffffffffffffffffffffff16036112d657600191506112e9565b80806112e190611eda565b915050611209565b5060011515811515036113345760016000838154811061130c5761130b611cb0565b5b90600052602060002090600b0201600501600082825461132c9190611e84565b925050819055505b5050565b60008080549050905090565b600080828154811061135957611358611cb0565b5b90600052602060002090600b0201600501549050919050565b600080828154811061138757611386611cb0565b5b90600052602060002090600b0201600701549050919050565b6113a8611722565b85858080601f016020809104026020016040519081016040528093929190818152602001838380828437600081840152601f19601f82011690508083019250505050505050816000018190525083838080601f016020809104026020016040519081016040528093929190818152602001838380828437600081840152601f19601f820116905080830192505050505050508160200181905250600081604001818152505033816060019073ffffffffffffffffffffffffffffffffffffffff16908173ffffffffffffffffffffffffffffffffffffffff168152505060008160800181815250506001805461149d90611d0e565b80601f01602080910402602001604051908101604052809291908181526020018280546114c990611d0e565b80156115165780601f106114eb57610100808354040283529160200191611516565b820191906000526020600020905b8154815290600101906020018083116114f957829003601f168201915b50505050508160c0018190525060018160e0018181525050818161012001818152505060008161014001901515908115158152505060008160a001818152505060008190806001815401808255809150506001900390600052602060002090600b0201600090919091909150600082015181600001908051906020019061159e92919061169c565b5060208201518160010190805190602001906115bb92919061169c565b506040820151816002015560608201518160030160006101000a81548173ffffffffffffffffffffffffffffffffffffffff021916908373ffffffffffffffffffffffffffffffffffffffff1602179055506080820151816004015560a0820151816005015560c082015181600601908051906020019061163d92919061169c565b5060e08201518160070155610100820151816008019080519060200190611665929190611794565b50610120820151816009015561014082015181600a0160006101000a81548160ff0219169083151502179055505050505050505050565b8280546116a890611d0e565b90600052602060002090601f0160209004810192826116ca5760008555611711565b82601f106116e357805160ff1916838001178555611711565b82800160010185558215611711579182015b828111156117105782518255916020019190600101906116f5565b5b50905061171e919061181e565b5090565b604051806101600160405280606081526020016060815260200160008152602001600073ffffffffffffffffffffffffffffffffffffffff1681526020016000815260200160008152602001606081526020016000815260200160608152602001600081526020016000151581525090565b82805482825590600052602060002090810192821561180d579160200282015b8281111561180c5782518260006101000a81548173ffffffffffffffffffffffffffffffffffffffff021916908373ffffffffffffffffffffffffffffffffffffffff160217905550916020019190600101906117b4565b5b50905061181a919061181e565b5090565b5b8082111561183757600081600090555060010161181f565b5090565b600080fd5b600080fd5b6000819050919050565b61185881611845565b811461186357600080fd5b50565b6000813590506118758161184f565b92915050565b6000602082840312156118915761189061183b565b5b600061189f84828501611866565b91505092915050565b600081519050919050565b600082825260208201905092915050565b6000819050602082019050919050565b600073ffffffffffffffffffffffffffffffffffffffff82169050919050565b60006118ff826118d4565b9050919050565b61190f816118f4565b82525050565b60006119218383611906565b60208301905092915050565b6000602082019050919050565b6000611945826118a8565b61194f81856118b3565b935061195a836118c4565b8060005b8381101561198b5781516119728882611915565b975061197d8361192d565b92505060018101905061195e565b5085935050505092915050565b600060208201905081810360008301526119b2818461193a565b905092915050565b600081519050919050565b600082825260208201905092915050565b60005b838110156119f45780820151818401526020810190506119d9565b83811115611a03576000848401525b50505050565b6000601f19601f8301169050919050565b6000611a25826119ba565b611a2f81856119c5565b9350611a3f8185602086016119d6565b611a4881611a09565b840191505092915050565b60006020820190508181036000830152611a6d8184611a1a565b905092915050565b611a7e81611845565b82525050565b6000602082019050611a996000830184611a75565b92915050565b6000611aaa826118d4565b9050919050565b611aba81611a9f565b82525050565b60008115159050919050565b611ad581611ac0565b82525050565b6000610140820190508181036000830152611af6818d611a1a565b90508181036020830152611b0a818c611a1a565b9050611b19604083018b611a75565b611b26606083018a611ab1565b611b336080830189611a75565b611b4060a0830188611a75565b81810360c0830152611b528187611a1a565b9050611b6160e0830186611a75565b611b6f610100830185611a75565b611b7d610120830184611acc565b9b9a5050505050505050505050565b611b95816118f4565b82525050565b6000602082019050611bb06000830184611b8c565b92915050565b600080fd5b600080fd5b600080fd5b60008083601f840112611bdb57611bda611bb6565b5b8235905067ffffffffffffffff811115611bf857611bf7611bbb565b5b602083019150836001820283011115611c1457611c13611bc0565b5b9250929050565b600080600080600060608688031215611c3757611c3661183b565b5b600086013567ffffffffffffffff811115611c5557611c54611840565b5b611c6188828901611bc5565b9550955050602086013567ffffffffffffffff811115611c8457611c83611840565b5b611c9088828901611bc5565b93509350506040611ca388828901611866565b9150509295509295909350565b7f4e487b7100000000000000000000000000000000000000000000000000000000600052603260045260246000fd5b7f4e487b7100000000000000000000000000000000000000000000000000000000600052602260045260246000fd5b60006002820490506001821680611d2657607f821691505b602082108103611d3957611d38611cdf565b5b50919050565b600081905092915050565b60008190508160005260206000209050919050565b60008154611d6c81611d0e565b611d768186611d3f565b94506001821660008114611d915760018114611da257611dd5565b60ff19831686528186019350611dd5565b611dab85611d4a565b60005b83811015611dcd57815481890152600182019150602081019050611dae565b838801955050505b50505092915050565b6000611dea8284611d5f565b915081905092915050565b7f4e487b7100000000000000000000000000000000000000000000000000000000600052601260045260246000fd5b7f4e487b7100000000000000000000000000000000000000000000000000000000600052601160045260246000fd5b6000611e5e82611845565b9150611e6983611845565b925082611e7957611e78611df5565b5b828204905092915050565b6000611e8f82611845565b9150611e9a83611845565b9250827fffffffffffffffffffffffffffffffffffffffffffffffffffffffffffffffff03821115611ecf57611ece611e24565b5b828201905092915050565b6000611ee582611845565b91507fffffffffffffffffffffffffffffffffffffffffffffffffffffffffffffffff8203611f1757611f16611e24565b5b60018201905091905056fea2646970667358221220e85d41441c98f1032781d884593e0118fc816f02ac875229f5e7826e5aa352f064736f6c634300080d0033",
  "immutableReferences": {},
  "source": "//SPDX-License-Identifier: UNLICENSED\r\npragma solidity >=0.4.22 <0.9.0;\r\n\r\ncontract crowdfunding{\r\n    // ==== Campaign Details stored in a struct ====\r\n    struct Campaign{\r\n        string name;\r\n        string description;\r\n        uint currentfunds;\r\n        address payable recipient;\r\n        uint investorsCount;\r\n        uint approvalcount;\r\n        string status;\r\n        uint milestones;\r\n        address[] investors;\r\n        uint fundsneeded;\r\n        bool fundscollected;\r\n    }\r\n\r\n    Campaign[] public CampaignsList;\r\n    string inprogress = \"in progress\";\r\n    string completed = \"completed\";\r\n\r\n    function getListLength() public view returns(uint){\r\n    return CampaignsList.length;\r\n    }\r\n\r\n    // ==== create a new contract ====\r\n    function createCampaign(string calldata n, string calldata dsc, uint fn) public {\r\n        Campaign memory campaignproposal;\r\n        campaignproposal.name = n;\r\n        campaignproposal.description = dsc;\r\n        campaignproposal.currentfunds = 0;\r\n        campaignproposal.recipient = payable(msg.sender);\r\n        campaignproposal.investorsCount = 0;\r\n        campaignproposal.status = inprogress;\r\n        campaignproposal.milestones = 1;\r\n        campaignproposal.fundsneeded = fn;\r\n        campaignproposal.fundscollected = false;\r\n        campaignproposal.approvalcount = 0;\r\n        CampaignsList.push(campaignproposal);\r\n    }\r\n\r\n    //Function to let investords invest in the campaign - store the address of each investor\r\n    function InvestInCampaign( uint indexofcampaign) public payable{\r\n        if (CampaignsList[indexofcampaign].fundscollected == false && keccak256(bytes(CampaignsList[indexofcampaign].status)) == keccak256(bytes(inprogress))){\r\n            CampaignsList[indexofcampaign].currentfunds += msg.value;\r\n            if(CampaignsList[indexofcampaign].fundsneeded == CampaignsList[indexofcampaign].currentfunds){\r\n                CampaignsList[indexofcampaign].fundscollected = true;\r\n            }\r\n            if (CampaignsList[indexofcampaign].investors.length == 1){\r\n                CampaignsList[indexofcampaign].investors[0] = payable(msg.sender);\r\n            }\r\n            else{\r\n                CampaignsList[indexofcampaign].investors.length;\r\n                CampaignsList[indexofcampaign].investors.push(msg.sender);\r\n            }\r\n            CampaignsList[indexofcampaign].investorsCount += 1;\r\n        }\r\n    }\r\n\r\n    \r\n    //Function to get approvals from investors to make sure project is on the right track and therefore worthy of the money\r\n    function giveApproval( uint indexofcampaign) public{\r\n        bool check = false;\r\n        for(uint i = 0 ; i < CampaignsList[indexofcampaign].investors.length; i++){\r\n            if (CampaignsList[indexofcampaign].investors[i] == msg.sender){\r\n                check = true;\r\n                break;\r\n            }\r\n        }\r\n        if (check == true){\r\n            CampaignsList[indexofcampaign].approvalcount += 1;\r\n        }\r\n    }\r\n\r\n    //Function for investees to retrieve money\r\n    // money can only be retrieved once all the target funds has been achieved\r\n    // money can only be recieved if half the investors have voted to do so.\r\n    function retrieveMoney(uint indexofcampaign) public payable {\r\n        if (CampaignsList[indexofcampaign].recipient == msg.sender && CampaignsList[indexofcampaign].fundscollected == true && keccak256(bytes(CampaignsList[indexofcampaign].status)) == keccak256(bytes(inprogress))){\r\n            if (CampaignsList[indexofcampaign].approvalcount >= CampaignsList[indexofcampaign].investorsCount/2){\r\n                uint currentmoney = CampaignsList[indexofcampaign].currentfunds;\r\n                if (CampaignsList[indexofcampaign].milestones == 2 || CampaignsList[indexofcampaign].milestones == 3 ){\r\n                    CampaignsList[indexofcampaign].recipient.transfer(currentmoney);\r\n                }\r\n               \r\n            }\r\n        }\r\n    }\r\n\r\n    function updateMilestones(uint indexofcampaign) public {\r\n        if(CampaignsList[indexofcampaign].recipient == msg.sender && CampaignsList[indexofcampaign].milestones < 4){\r\n            CampaignsList[indexofcampaign].milestones += 1;\r\n        }\r\n    }\r\n\r\n    function EndCampaign(uint indexofcampaign) public {\r\n        if (CampaignsList[indexofcampaign].recipient == msg.sender){\r\n            CampaignsList[indexofcampaign].status = \"completed\";\r\n        }\r\n    }\r\n\r\n    //getter functions for display\r\n    function getCampaignName(uint id) external view returns (string memory){\r\n        return (CampaignsList[id].name );\r\n    }\r\n    function getCampaignDesc(uint id) external view returns (string memory){\r\n        return ( CampaignsList[id].description );\r\n    }\r\n    function getCampaignMilestones(uint id) external view returns ( uint){\r\n        return ( CampaignsList[id].milestones );\r\n    }\r\n    function getCampaignTargetAmount(uint id) external view returns ( uint){\r\n        return ( CampaignsList[id].fundsneeded );\r\n    }\r\n    function getCampaignCurrentFunds(uint id) external view returns ( uint){\r\n        return ( CampaignsList[id].currentfunds );\r\n    }\r\n    function getInvestorsNumber(uint id) external view returns (uint){\r\n        return (CampaignsList[id].investorsCount);\r\n    }\r\n    function getGrantOwner(uint id) external view returns (address){\r\n        return (CampaignsList[id].recipient);\r\n    }\r\n    function getInvestors(uint id) external view returns (address[] memory){\r\n        return (CampaignsList[id].investors);\r\n    }\r\n    function getApprovalCount(uint id) external view returns (uint){\r\n        return (CampaignsList[id].approvalcount);\r\n    }\r\n    function getCampaignStatus(uint id) external view returns (string memory){\r\n        return (CampaignsList[id].status);\r\n    }\r\n}",
  "sourcePath": "C:\\Users\\adily\\Desktop\\Web Development\\crowd\\contracts\\CrowdFunding.sol",
  "compiler": {
    "name": "solc",
    "version": "0.8.13+commit.abaa5c0e.Emscripten.clang"
  },
  "schemaVersion": "3.4.7",
  "updatedAt": "2022-05-23T06:08:08.373Z",
  "networkType": "ethereum",
  "devdoc": {
    "kind": "dev",
    "methods": {},
    "version": 1
  },
  "userdoc": {
    "kind": "user",
    "methods": {},
    "version": 1
  }
}