{
  "contractName": "crowdfunding",
  "abi": [
    {
      "inputs": [
        {
          "internalType": "uint256",
          "name": "",
          "type": "uint256"
        }
      ],
      "name": "CampaignsList",
      "outputs": [
        {
          "internalType": "string",
          "name": "name",
          "type": "string"
        },
        {
          "internalType": "string",
          "name": "description",
          "type": "string"
        },
        {
          "internalType": "uint256",
          "name": "currentfunds",
          "type": "uint256"
        },
        {
          "internalType": "address payable",
          "name": "recipient",
          "type": "address"
        },
        {
          "internalType": "uint256",
          "name": "investorsCount",
          "type": "uint256"
        },
        {
          "internalType": "uint256",
          "name": "approvalcount",
          "type": "uint256"
        },
        {
          "internalType": "string",
          "name": "status",
          "type": "string"
        },
        {
          "internalType": "uint256",
          "name": "milestones",
          "type": "uint256"
        },
        {
          "internalType": "uint256",
          "name": "fundsneeded",
          "type": "uint256"
        },
        {
          "internalType": "bool",
          "name": "fundscollected",
          "type": "bool"
        }
      ],
      "stateMutability": "view",
      "type": "function"
    },
    {
      "inputs": [],
      "name": "getListLength",
      "outputs": [
        {
          "internalType": "uint256",
          "name": "",
          "type": "uint256"
        }
      ],
      "stateMutability": "view",
      "type": "function"
    },
    {
      "inputs": [
        {
          "internalType": "string",
          "name": "n",
          "type": "string"
        },
        {
          "internalType": "string",
          "name": "dsc",
          "type": "string"
        },
        {
          "internalType": "uint256",
          "name": "fn",
          "type": "uint256"
        }
      ],
      "name": "createCampaign",
      "outputs": [],
      "stateMutability": "nonpayable",
      "type": "function"
    },
    {
      "inputs": [
        {
          "internalType": "uint256",
          "name": "indexofcampaign",
          "type": "uint256"
        }
      ],
      "name": "InvestInCampaign",
      "outputs": [],
      "stateMutability": "payable",
      "type": "function"
    },
    {
      "inputs": [
        {
          "internalType": "uint256",
          "name": "indexofcampaign",
          "type": "uint256"
        }
      ],
      "name": "giveApproval",
      "outputs": [],
      "stateMutability": "nonpayable",
      "type": "function"
    },
    {
      "inputs": [
        {
          "internalType": "uint256",
          "name": "indexofcampaign",
          "type": "uint256"
        }
      ],
      "name": "retrieveMoney",
      "outputs": [],
      "stateMutability": "payable",
      "type": "function"
    },
    {
      "inputs": [
        {
          "internalType": "uint256",
          "name": "indexofcampaign",
          "type": "uint256"
        }
      ],
      "name": "updateMilestones",
      "outputs": [],
      "stateMutability": "nonpayable",
      "type": "function"
    },
    {
      "inputs": [
        {
          "internalType": "uint256",
          "name": "indexofcampaign",
          "type": "uint256"
        }
      ],
      "name": "EndCampaign",
      "outputs": [],
      "stateMutability": "nonpayable",
      "type": "function"
    },
    {
      "inputs": [
        {
          "internalType": "uint256",
          "name": "id",
          "type": "uint256"
        }
      ],
      "name": "getCampaignName",
      "outputs": [
        {
          "internalType": "string",
          "name": "",
          "type": "string"
        }
      ],
      "stateMutability": "view",
      "type": "function"
    },
    {
      "inputs": [
        {
          "internalType": "uint256",
          "name": "id",
          "type": "uint256"
        }
      ],
      "name": "getCampaignDesc",
      "outputs": [
        {
          "internalType": "string",
          "name": "",
          "type": "string"
        }
      ],
      "stateMutability": "view",
      "type": "function"
    },
    {
      "inputs": [
        {
          "internalType": "uint256",
          "name": "id",
          "type": "uint256"
        }
      ],
      "name": "getCampaignMilestones",
      "outputs": [
        {
          "internalType": "uint256",
          "name": "",
          "type": "uint256"
        }
      ],
      "stateMutability": "view",
      "type": "function"
    },
    {
      "inputs": [
        {
          "internalType": "uint256",
          "name": "id",
          "type": "uint256"
        }
      ],
      "name": "getCampaignTargetAmount",
      "outputs": [
        {
          "internalType": "uint256",
          "name": "",
          "type": "uint256"
        }
      ],
      "stateMutability": "view",
      "type": "function"
    },
    {
      "inputs": [
        {
          "internalType": "uint256",
          "name": "id",
          "type": "uint256"
        }
      ],
      "name": "getCampaignCurrentFunds",
      "outputs": [
        {
          "internalType": "uint256",
          "name": "",
          "type": "uint256"
        }
      ],
      "stateMutability": "view",
      "type": "function"
    },
    {
      "inputs": [
        {
          "internalType": "uint256",
          "name": "id",
          "type": "uint256"
        }
      ],
      "name": "getInvestorsNumber",
      "outputs": [
        {
          "internalType": "uint256",
          "name": "",
          "type": "uint256"
        }
      ],
      "stateMutability": "view",
      "type": "function"
    },
    {
      "inputs": [
        {
          "internalType": "uint256",
          "name": "id",
          "type": "uint256"
        }
      ],
      "name": "getGrantOwner",
      "outputs": [
        {
          "internalType": "address",
          "name": "",
          "type": "address"
        }
      ],
      "stateMutability": "view",
      "type": "function"
    },
    {
      "inputs": [
        {
          "internalType": "uint256",
          "name": "id",
          "type": "uint256"
        }
      ],
      "name": "getInvestors",
      "outputs": [
        {
          "internalType": "address[]",
          "name": "",
          "type": "address[]"
        }
      ],
      "stateMutability": "view",
      "type": "function"
    },
    {
      "inputs": [
        {
          "internalType": "uint256",
          "name": "id",
          "type": "uint256"
        }
      ],
      "name": "getApprovalCount",
      "outputs": [
        {
          "internalType": "uint256",
          "name": "",
          "type": "uint256"
        }
      ],
      "stateMutability": "view",
      "type": "function"
    },
    {
      "inputs": [
        {
          "internalType": "uint256",
          "name": "id",
          "type": "uint256"
        }
      ],
      "name": "getCampaignStatus",
      "outputs": [
        {
          "internalType": "string",
          "name": "",
          "type": "string"
        }
      ],
      "stateMutability": "view",
      "type": "function"
    }
  ],
  "bytecode": "0x60806040526040518060400160405280600b81526020017f696e2070726f67726573730000000000000000000000000000000000000000008152506001908051906020019062000051929190620000b4565b506040518060400160405280600981526020017f636f6d706c657465640000000000000000000000000000000000000000000000815250600290805190602001906200009f929190620000b4565b50348015620000ad57600080fd5b50620001c8565b828054620000c29062000193565b90600052602060002090601f016020900481019282620000e6576000855562000132565b82601f106200010157805160ff191683800117855562000132565b8280016001018555821562000132579182015b828111156200013157825182559160200191906001019062000114565b5b50905062000141919062000145565b5090565b5b808211156200016057600081600090555060010162000146565b5090565b7f4e487b7100000000000000000000000000000000000000000000000000000000600052602260045260246000fd5b60006002820490506001821680620001ac57607f821691505b602082108103620001c257620001c162000164565b5b50919050565b611ef980620001d86000396000f3fe6080604052600436106101095760003560e01c806386fcc5d011610095578063b138821e11610064578063b138821e146103c6578063b65c531b146103ef578063ba7e7cab1461041a578063f91e4b2914610457578063ffa56a571461049457610109565b806386fcc5d0146102f1578063a0275aeb14610337578063a31a592014610360578063abe114b51461039d57610109565b80636c19e004116100dc5780636c19e004146101e15780636caf263d1461021e578063714d611a1461025b5780637338a44a1461027757806376a1e98d146102b457610109565b80631139de551461010e578063274ebb131461014b5780635a102275146101675780635da360c3146101a4575b600080fd5b34801561011a57600080fd5b506101356004803603810190610130919061181c565b6104bd565b6040516101429190611939565b60405180910390f35b6101656004803603810190610160919061181c565b610570565b005b34801561017357600080fd5b5061018e6004803603810190610189919061181c565b61079d565b60405161019b91906119f4565b60405180910390f35b3480156101b057600080fd5b506101cb60048036038101906101c6919061181c565b610854565b6040516101d89190611a25565b60405180910390f35b3480156101ed57600080fd5b506102086004803603810190610203919061181c565b610882565b60405161021591906119f4565b60405180910390f35b34801561022a57600080fd5b506102456004803603810190610240919061181c565b610939565b6040516102529190611a25565b60405180910390f35b6102756004803603810190610270919061181c565b610967565b005b34801561028357600080fd5b5061029e6004803603810190610299919061181c565b610c74565b6040516102ab91906119f4565b60405180910390f35b3480156102c057600080fd5b506102db60048036038101906102d6919061181c565b610d2b565b6040516102e89190611a25565b60405180910390f35b3480156102fd57600080fd5b506103186004803603810190610313919061181c565b610d59565b60405161032e9a99989796959493929190611a7c565b60405180910390f35b34801561034357600080fd5b5061035e6004803603810190610359919061181c565b610f82565b005b34801561036c57600080fd5b506103876004803603810190610382919061181c565b61106d565b6040516103949190611b3c565b60405180910390f35b3480156103a957600080fd5b506103c460048036038101906103bf919061181c565b6110bb565b005b3480156103d257600080fd5b506103ed60048036038101906103e8919061181c565b6111a6565b005b3480156103fb57600080fd5b506104046112d9565b6040516104119190611a25565b60405180910390f35b34801561042657600080fd5b50610441600480360381019061043c919061181c565b6112e5565b60405161044e9190611a25565b60405180910390f35b34801561046357600080fd5b5061047e6004803603810190610479919061181c565b611313565b60405161048b9190611a25565b60405180910390f35b3480156104a057600080fd5b506104bb60048036038101906104b69190611bbc565b611341565b005b6060600082815481106104d3576104d2611c51565b5b90600052602060002090600b020160080180548060200260200160405190810160405280929190818152602001828054801561056457602002820191906000526020600020905b8160009054906101000a900473ffffffffffffffffffffffffffffffffffffffff1673ffffffffffffffffffffffffffffffffffffffff168152602001906001019080831161051a575b50505050509050919050565b3373ffffffffffffffffffffffffffffffffffffffff166000828154811061059b5761059a611c51565b5b90600052602060002090600b020160030160009054906101000a900473ffffffffffffffffffffffffffffffffffffffff1673ffffffffffffffffffffffffffffffffffffffff161480156106265750600115156000828154811061060357610602611c51565b5b90600052602060002090600b0201600a0160009054906101000a900460ff161515145b80156106805750600160405161063c9190611d7f565b60405180910390206000828154811061065857610657611c51565b5b90600052602060002090600b02016006016040516106769190611d7f565b6040518091039020145b1561079a5760026000828154811061069b5761069a611c51565b5b90600052602060002090600b0201600401546106b79190611df4565b600082815481106106cb576106ca611c51565b5b90600052602060002090600b020160050154106107995760008082815481106106f7576106f6611c51565b5b90600052602060002090600b02016002015490506000828154811061071f5761071e611c51565b5b90600052602060002090600b020160030160009054906101000a900473ffffffffffffffffffffffffffffffffffffffff1673ffffffffffffffffffffffffffffffffffffffff166108fc829081150290604051600060405180830381858888f19350505050158015610796573d6000803e3d6000fd5b50505b5b50565b6060600082815481106107b3576107b2611c51565b5b90600052602060002090600b020160000180546107cf90611caf565b80601f01602080910402602001604051908101604052809291908181526020018280546107fb90611caf565b80156108485780601f1061081d57610100808354040283529160200191610848565b820191906000526020600020905b81548152906001019060200180831161082b57829003601f168201915b50505050509050919050565b600080828154811061086957610868611c51565b5b90600052602060002090600b0201600901549050919050565b60606000828154811061089857610897611c51565b5b90600052602060002090600b020160060180546108b490611caf565b80601f01602080910402602001604051908101604052809291908181526020018280546108e090611caf565b801561092d5780601f106109025761010080835404028352916020019161092d565b820191906000526020600020905b81548152906001019060200180831161091057829003601f168201915b50505050509050919050565b600080828154811061094e5761094d611c51565b5b90600052602060002090600b0201600201549050919050565b600015156000828154811061097f5761097e611c51565b5b90600052602060002090600b0201600a0160009054906101000a900460ff1615151480156109fb575060016040516109b79190611d7f565b6040518091039020600082815481106109d3576109d2611c51565b5b90600052602060002090600b02016006016040516109f19190611d7f565b6040518091039020145b15610c71573460008281548110610a1557610a14611c51565b5b90600052602060002090600b02016002016000828254610a359190611e25565b9250508190555060008181548110610a5057610a4f611c51565b5b90600052602060002090600b02016002015460008281548110610a7657610a75611c51565b5b90600052602060002090600b02016009015403610acc57600160008281548110610aa357610aa2611c51565b5b90600052602060002090600b0201600a0160006101000a81548160ff0219169083151502179055505b600160008281548110610ae257610ae1611c51565b5b90600052602060002090600b02016008018054905003610b82573360008281548110610b1157610b10611c51565b5b90600052602060002090600b0201600801600081548110610b3557610b34611c51565b5b9060005260206000200160006101000a81548173ffffffffffffffffffffffffffffffffffffffff021916908373ffffffffffffffffffffffffffffffffffffffff160217905550610c33565b60008181548110610b9657610b95611c51565b5b90600052602060002090600b0201600801805490505060008181548110610bc057610bbf611c51565b5b90600052602060002090600b0201600801339080600181540180825580915050600190039060005260206000200160009091909190916101000a81548173ffffffffffffffffffffffffffffffffffffffff021916908373ffffffffffffffffffffffffffffffffffffffff1602179055505b600160008281548110610c4957610c48611c51565b5b90600052602060002090600b02016004016000828254610c699190611e25565b925050819055505b50565b606060008281548110610c8a57610c89611c51565b5b90600052602060002090600b02016001018054610ca690611caf565b80601f0160208091040260200160405190810160405280929190818152602001828054610cd290611caf565b8015610d1f5780601f10610cf457610100808354040283529160200191610d1f565b820191906000526020600020905b815481529060010190602001808311610d0257829003601f168201915b50505050509050919050565b6000808281548110610d4057610d3f611c51565b5b90600052602060002090600b0201600401549050919050565b60008181548110610d6957600080fd5b90600052602060002090600b0201600091509050806000018054610d8c90611caf565b80601f0160208091040260200160405190810160405280929190818152602001828054610db890611caf565b8015610e055780601f10610dda57610100808354040283529160200191610e05565b820191906000526020600020905b815481529060010190602001808311610de857829003601f168201915b505050505090806001018054610e1a90611caf565b80601f0160208091040260200160405190810160405280929190818152602001828054610e4690611caf565b8015610e935780601f10610e6857610100808354040283529160200191610e93565b820191906000526020600020905b815481529060010190602001808311610e7657829003601f168201915b5050505050908060020154908060030160009054906101000a900473ffffffffffffffffffffffffffffffffffffffff1690806004015490806005015490806006018054610ee090611caf565b80601f0160208091040260200160405190810160405280929190818152602001828054610f0c90611caf565b8015610f595780601f10610f2e57610100808354040283529160200191610f59565b820191906000526020600020905b815481529060010190602001808311610f3c57829003601f168201915b50505050509080600701549080600901549080600a0160009054906101000a900460ff1690508a565b3373ffffffffffffffffffffffffffffffffffffffff1660008281548110610fad57610fac611c51565b5b90600052602060002090600b020160030160009054906101000a900473ffffffffffffffffffffffffffffffffffffffff1673ffffffffffffffffffffffffffffffffffffffff16148015611027575060046000828154811061101357611012611c51565b5b90600052602060002090600b020160070154105b1561106a5760016000828154811061104257611041611c51565b5b90600052602060002090600b020160070160008282546110629190611e25565b925050819055505b50565b600080828154811061108257611081611c51565b5b90600052602060002090600b020160030160009054906101000a900473ffffffffffffffffffffffffffffffffffffffff169050919050565b3373ffffffffffffffffffffffffffffffffffffffff16600082815481106110e6576110e5611c51565b5b90600052602060002090600b020160030160009054906101000a900473ffffffffffffffffffffffffffffffffffffffff1673ffffffffffffffffffffffffffffffffffffffff16036111a3576040518060400160405280600981526020017f636f6d706c6574656400000000000000000000000000000000000000000000008152506000828154811061117d5761117c611c51565b5b90600052602060002090600b020160060190805190602001906111a192919061163d565b505b50565b6000805b600083815481106111be576111bd611c51565b5b90600052602060002090600b02016008018054905081101561128a573373ffffffffffffffffffffffffffffffffffffffff166000848154811061120557611204611c51565b5b90600052602060002090600b0201600801828154811061122857611227611c51565b5b9060005260206000200160009054906101000a900473ffffffffffffffffffffffffffffffffffffffff1673ffffffffffffffffffffffffffffffffffffffff1603611277576001915061128a565b808061128290611e7b565b9150506111aa565b5060011515811515036112d5576001600083815481106112ad576112ac611c51565b5b90600052602060002090600b020160050160008282546112cd9190611e25565b925050819055505b5050565b60008080549050905090565b60008082815481106112fa576112f9611c51565b5b90600052602060002090600b0201600501549050919050565b600080828154811061132857611327611c51565b5b90600052602060002090600b0201600701549050919050565b6113496116c3565b85858080601f016020809104026020016040519081016040528093929190818152602001838380828437600081840152601f19601f82011690508083019250505050505050816000018190525083838080601f016020809104026020016040519081016040528093929190818152602001838380828437600081840152601f19601f820116905080830192505050505050508160200181905250600081604001818152505033816060019073ffffffffffffffffffffffffffffffffffffffff16908173ffffffffffffffffffffffffffffffffffffffff168152505060008160800181815250506001805461143e90611caf565b80601f016020809104026020016040519081016040528092919081815260200182805461146a90611caf565b80156114b75780601f1061148c576101008083540402835291602001916114b7565b820191906000526020600020905b81548152906001019060200180831161149a57829003601f168201915b50505050508160c0018190525060018160e0018181525050818161012001818152505060008161014001901515908115158152505060008160a001818152505060008190806001815401808255809150506001900390600052602060002090600b0201600090919091909150600082015181600001908051906020019061153f92919061163d565b50602082015181600101908051906020019061155c92919061163d565b506040820151816002015560608201518160030160006101000a81548173ffffffffffffffffffffffffffffffffffffffff021916908373ffffffffffffffffffffffffffffffffffffffff1602179055506080820151816004015560a0820151816005015560c08201518160060190805190602001906115de92919061163d565b5060e08201518160070155610100820151816008019080519060200190611606929190611735565b50610120820151816009015561014082015181600a0160006101000a81548160ff0219169083151502179055505050505050505050565b82805461164990611caf565b90600052602060002090601f01602090048101928261166b57600085556116b2565b82601f1061168457805160ff19168380011785556116b2565b828001600101855582156116b2579182015b828111156116b1578251825591602001919060010190611696565b5b5090506116bf91906117bf565b5090565b604051806101600160405280606081526020016060815260200160008152602001600073ffffffffffffffffffffffffffffffffffffffff1681526020016000815260200160008152602001606081526020016000815260200160608152602001600081526020016000151581525090565b8280548282559060005260206000209081019282156117ae579160200282015b828111156117ad5782518260006101000a81548173ffffffffffffffffffffffffffffffffffffffff021916908373ffffffffffffffffffffffffffffffffffffffff16021790555091602001919060010190611755565b5b5090506117bb91906117bf565b5090565b5b808211156117d85760008160009055506001016117c0565b5090565b600080fd5b600080fd5b6000819050919050565b6117f9816117e6565b811461180457600080fd5b50565b600081359050611816816117f0565b92915050565b600060208284031215611832576118316117dc565b5b600061184084828501611807565b91505092915050565b600081519050919050565b600082825260208201905092915050565b6000819050602082019050919050565b600073ffffffffffffffffffffffffffffffffffffffff82169050919050565b60006118a082611875565b9050919050565b6118b081611895565b82525050565b60006118c283836118a7565b60208301905092915050565b6000602082019050919050565b60006118e682611849565b6118f08185611854565b93506118fb83611865565b8060005b8381101561192c57815161191388826118b6565b975061191e836118ce565b9250506001810190506118ff565b5085935050505092915050565b6000602082019050818103600083015261195381846118db565b905092915050565b600081519050919050565b600082825260208201905092915050565b60005b8381101561199557808201518184015260208101905061197a565b838111156119a4576000848401525b50505050565b6000601f19601f8301169050919050565b60006119c68261195b565b6119d08185611966565b93506119e0818560208601611977565b6119e9816119aa565b840191505092915050565b60006020820190508181036000830152611a0e81846119bb565b905092915050565b611a1f816117e6565b82525050565b6000602082019050611a3a6000830184611a16565b92915050565b6000611a4b82611875565b9050919050565b611a5b81611a40565b82525050565b60008115159050919050565b611a7681611a61565b82525050565b6000610140820190508181036000830152611a97818d6119bb565b90508181036020830152611aab818c6119bb565b9050611aba604083018b611a16565b611ac7606083018a611a52565b611ad46080830189611a16565b611ae160a0830188611a16565b81810360c0830152611af381876119bb565b9050611b0260e0830186611a16565b611b10610100830185611a16565b611b1e610120830184611a6d565b9b9a5050505050505050505050565b611b3681611895565b82525050565b6000602082019050611b516000830184611b2d565b92915050565b600080fd5b600080fd5b600080fd5b60008083601f840112611b7c57611b7b611b57565b5b8235905067ffffffffffffffff811115611b9957611b98611b5c565b5b602083019150836001820283011115611bb557611bb4611b61565b5b9250929050565b600080600080600060608688031215611bd857611bd76117dc565b5b600086013567ffffffffffffffff811115611bf657611bf56117e1565b5b611c0288828901611b66565b9550955050602086013567ffffffffffffffff811115611c2557611c246117e1565b5b611c3188828901611b66565b93509350506040611c4488828901611807565b9150509295509295909350565b7f4e487b7100000000000000000000000000000000000000000000000000000000600052603260045260246000fd5b7f4e487b7100000000000000000000000000000000000000000000000000000000600052602260045260246000fd5b60006002820490506001821680611cc757607f821691505b602082108103611cda57611cd9611c80565b5b50919050565b600081905092915050565b60008190508160005260206000209050919050565b60008154611d0d81611caf565b611d178186611ce0565b94506001821660008114611d325760018114611d4357611d76565b60ff19831686528186019350611d76565b611d4c85611ceb565b60005b83811015611d6e57815481890152600182019150602081019050611d4f565b838801955050505b50505092915050565b6000611d8b8284611d00565b915081905092915050565b7f4e487b7100000000000000000000000000000000000000000000000000000000600052601260045260246000fd5b7f4e487b7100000000000000000000000000000000000000000000000000000000600052601160045260246000fd5b6000611dff826117e6565b9150611e0a836117e6565b925082611e1a57611e19611d96565b5b828204905092915050565b6000611e30826117e6565b9150611e3b836117e6565b9250827fffffffffffffffffffffffffffffffffffffffffffffffffffffffffffffffff03821115611e7057611e6f611dc5565b5b828201905092915050565b6000611e86826117e6565b91507fffffffffffffffffffffffffffffffffffffffffffffffffffffffffffffffff8203611eb857611eb7611dc5565b5b60018201905091905056fea2646970667358221220a201a05d7b4c9957958bf98a392da95a786f8fa5737471f121c98b04b92f527564736f6c634300080d0033",
  "immutableReferences": {},
  "source": "//SPDX-License-Identifier: UNLICENSED\r\npragma solidity >=0.4.22 <0.9.0;\r\n\r\ncontract crowdfunding{\r\n    // ==== Campaign Details stored in a struct ====\r\n    struct Campaign{\r\n        string name;\r\n        string description;\r\n        uint currentfunds;\r\n        address payable recipient;\r\n        uint investorsCount;\r\n        uint approvalcount;\r\n        string status;\r\n        uint milestones;\r\n        address[] investors;\r\n        uint fundsneeded;\r\n        bool fundscollected;\r\n    }\r\n\r\n    Campaign[] public CampaignsList;\r\n    string inprogress = \"in progress\";\r\n    string completed = \"completed\";\r\n\r\n    function getListLength() public view returns(uint){\r\n    return CampaignsList.length;\r\n    }\r\n\r\n    // ==== create a new contract ====\r\n    function createCampaign(string calldata n, string calldata dsc, uint fn) public {\r\n        Campaign memory campaignproposal;\r\n        campaignproposal.name = n;\r\n        campaignproposal.description = dsc;\r\n        campaignproposal.currentfunds = 0;\r\n        campaignproposal.recipient = payable(msg.sender);\r\n        campaignproposal.investorsCount = 0;\r\n        campaignproposal.status = inprogress;\r\n        campaignproposal.milestones = 1;\r\n        campaignproposal.fundsneeded = fn;\r\n        campaignproposal.fundscollected = false;\r\n        campaignproposal.approvalcount = 0;\r\n        CampaignsList.push(campaignproposal);\r\n    }\r\n\r\n    //Function to let investords invest in the campaign - store the address of each investor\r\n    function InvestInCampaign( uint indexofcampaign) public payable{\r\n        if (CampaignsList[indexofcampaign].fundscollected == false && keccak256(bytes(CampaignsList[indexofcampaign].status)) == keccak256(bytes(inprogress))){\r\n            CampaignsList[indexofcampaign].currentfunds += msg.value;\r\n            if(CampaignsList[indexofcampaign].fundsneeded == CampaignsList[indexofcampaign].currentfunds){\r\n                CampaignsList[indexofcampaign].fundscollected = true;\r\n            }\r\n            if (CampaignsList[indexofcampaign].investors.length == 1){\r\n                CampaignsList[indexofcampaign].investors[0] = payable(msg.sender);\r\n            }\r\n            else{\r\n                CampaignsList[indexofcampaign].investors.length;\r\n                CampaignsList[indexofcampaign].investors.push(msg.sender);\r\n            }\r\n            CampaignsList[indexofcampaign].investorsCount += 1;\r\n        }\r\n    }\r\n\r\n    \r\n    //Function to get approvals from investors to make sure project is on the right track and therefore worthy of the money\r\n    function giveApproval( uint indexofcampaign) public{\r\n        bool check = false;\r\n        for(uint i = 0 ; i < CampaignsList[indexofcampaign].investors.length; i++){\r\n            if (CampaignsList[indexofcampaign].investors[i] == msg.sender){\r\n                check = true;\r\n                break;\r\n            }\r\n        }\r\n        if (check == true){\r\n            CampaignsList[indexofcampaign].approvalcount += 1;\r\n        }\r\n    }\r\n\r\n    //Function for investees to retrieve money\r\n    // money can only be retrieved once all the target funds has been achieved\r\n    // money can only be recieved if half the investors have voted to do so.\r\n    function retrieveMoney(uint indexofcampaign) public payable {\r\n        if (CampaignsList[indexofcampaign].recipient == msg.sender && CampaignsList[indexofcampaign].fundscollected == true && keccak256(bytes(CampaignsList[indexofcampaign].status)) == keccak256(bytes(inprogress))){\r\n            if (CampaignsList[indexofcampaign].approvalcount >= CampaignsList[indexofcampaign].investorsCount/2){\r\n                uint currentmoney = CampaignsList[indexofcampaign].currentfunds;\r\n                    CampaignsList[indexofcampaign].recipient.transfer(currentmoney);\r\n            }\r\n        }\r\n    }\r\n\r\n    function updateMilestones(uint indexofcampaign) public {\r\n        if(CampaignsList[indexofcampaign].recipient == msg.sender && CampaignsList[indexofcampaign].milestones < 4){\r\n            CampaignsList[indexofcampaign].milestones += 1;\r\n        }\r\n    }\r\n\r\n    function EndCampaign(uint indexofcampaign) public {\r\n        if (CampaignsList[indexofcampaign].recipient == msg.sender){\r\n            CampaignsList[indexofcampaign].status = \"completed\";\r\n        }\r\n    }\r\n\r\n    //getter functions for display\r\n    function getCampaignName(uint id) external view returns (string memory){\r\n        return (CampaignsList[id].name );\r\n    }\r\n    function getCampaignDesc(uint id) external view returns (string memory){\r\n        return ( CampaignsList[id].description );\r\n    }\r\n    function getCampaignMilestones(uint id) external view returns ( uint){\r\n        return ( CampaignsList[id].milestones );\r\n    }\r\n    function getCampaignTargetAmount(uint id) external view returns ( uint){\r\n        return ( CampaignsList[id].fundsneeded );\r\n    }\r\n    function getCampaignCurrentFunds(uint id) external view returns ( uint){\r\n        return ( CampaignsList[id].currentfunds );\r\n    }\r\n    function getInvestorsNumber(uint id) external view returns (uint){\r\n        return (CampaignsList[id].investorsCount);\r\n    }\r\n    function getGrantOwner(uint id) external view returns (address){\r\n        return (CampaignsList[id].recipient);\r\n    }\r\n    function getInvestors(uint id) external view returns (address[] memory){\r\n        return (CampaignsList[id].investors);\r\n    }\r\n    function getApprovalCount(uint id) external view returns (uint){\r\n        return (CampaignsList[id].approvalcount);\r\n    }\r\n    function getCampaignStatus(uint id) external view returns (string memory){\r\n        return (CampaignsList[id].status);\r\n    }\r\n}",
  "sourcePath": "C:\\Users\\adily\\Desktop\\Web Development\\crowd\\contracts\\CrowdFunding.sol",
  "compiler": {
    "name": "solc",
    "version": "0.8.13+commit.abaa5c0e.Emscripten.clang"
  },
  "schemaVersion": "3.4.7",
  "updatedAt": "2022-06-26T11:50:06.729Z",
  "devdoc": {
    "kind": "dev",
    "methods": {},
    "version": 1
  },
  "userdoc": {
    "kind": "user",
    "methods": {},
    "version": 1
  }
}